:10000000830100308A000428203084003A300F2019
:1000100083010A128A11D32D04068001840A040682
:10002000031D0C28003483120313BA00BB1B2128C4
:100030003B1B29283B088A003A08BA0A0319BB0A65
:10004000820083133B1883173A08BA0A8400000819
:10005000080083013B0C1F39831203178F00031321
:100060003A0C03178D0083168C170C140000000047
:1000700083120C0883013A184328831203178C1B40
:1000800003140E0D83017F3908004926C8233A2A3C
:100090004800C1223A2A43004810CD2A001DA01270
:1000A0004710001D4926C8233A2A2010A0124710E5
:1000B000201D25104800C1223A2A20104310481064
:1000C000CD2A201D0010201020104810CC22C5265B
:1000D000202A2010001020102010201020102010A6
:0600E000201020100000BA
:1009340083018C128C1E9C2C1A08F000F101080013
:10094400831603130713871798168312181698171C
:100954008316181283128C1283168C161815813084
:100964009900831208008301B700860186140611DA
:10097400F03986048615861101300A128A11092D70
:100984008301B600B5240A128A11360EF039B52C4B
:10099400D72C3508BB0034080A128A1113200A1216
:1009A4008A11C224B40A0319B50A83120313350841
:1009B400BB0034080A128A1113200A128A11003863
:1009C40003190800CB2C8301B40034089900831662
:1009D400981CE92C83120800FB2C3508BB00340852
:1009E4000A128A1113200A128A11E524B40A03197F
:1009F400B50A831203133508BB0034080A128A119E
:100A040013200A128A11003803190800EF2C8301FD
:100A1400B800282DFA30B900102D0000B903390FA1
:100A24000F2DFA30B900172D0000B903390F162D18
:100A3400FA30B9001E2D0000B903390F1D2DFA300C
:100A4400B900252D0000B903390F242D8312031397
:100A5400B803380F0C2D08008301B400392DFA3087
:100A64000925FA300925FA300925FA3009258312B7
:100A74000313B403340F312D08008301B50086013C
:100A840086100611F03986048615861101300A1283
:100A94008A11092D8301B4003F250A128A11340EEC
:100AA400F0393F2D0F300A128A1109250A128A11D2
:100AB40030303F2505300A128A1109250A128A119D
:100AC40030303F2502300A128A1109250A128A1190
:100AD40030303F2501300A128A1109250A128A1181
:100AE40020303F250A128A1101304C250A128A113E
:100AF40006304C250A128A110C304C250A128A1130
:100B040080304C2D8301B7003608370784008313E7
:100B14008001AD2D36083707840083130A30F200B4
:100B2400F3013508F1003408F0000A128A11B827DD
:100B34007008303E80000A30F200F3013408F000FF
:100B44003508F1000A128A11B8270A128A117408AA
:100B5400B4007508B500B603360F8C2D0800830168
:100B6400B400F0000310F00D0310F00D0310700D2D
:100B740081389F00B501B50A64303502031CBD2DD0
:100B84001F151F19C32D1E08B600B701B700B60103
:100B940083161E088312B6043708F1003608F000E5
:100BA40008008030831603139F00811705148514F1
:100BB400051585150130860088010A128A1154250D
:100BC400C630B4004030B5000A128A11CA24C030BD
:100BD4000A128A114C25D630B4004030B5000A12EE
:100BE4008A11CA2402300A128A112E2580300A1270
:0C0BF4008A114C25B530B4004030B5002B
:100C00000A128A11CA24C0300A128A114C25A43053
:100C1000B4004030B5000A128A11CA2480300A128A
:100C20008A114C250A128A110030B1250A128A1144
:100C3000B527C330F300F530F4003E30F5000A125A
:100C40008A1138270A128A1179270A128A11700824
:100C5000A2007108A3002208B4002308B5000230E6
:100C6000B6002A3084259130B4004030B5000A1215
:100C70008A11CA242A30B4008030B5000A128A11C1
:100C8000CA24D8300A128A11C2249730B4004030E6
:100C9000B5000A128A11CA240A128A110B30F20016
:100CA000F3010130B1250A128A11B8270A128A11FC
:100CB0007408A4007508A5002408B4002508B50030
:100CC0000230B6002A3084252A30B4008030B500C6
:100CD0000A128A11CA24C0300A128A114C250A123B
:100CE0008A110B30F200F3010230B1250A128A1189
:100CF000B8270A128A117408A6007508A7002608EA
:100D0000B4002708B5000230B6002A3084258A30A6
:100D1000B4004030B5000A128A11CA242A30B40047
:100D20008030B5000A128A11CA249E30B4004030C7
:100D3000B5000A128A11CA240A128A110330B12599
:100D40007008A0007108A1002008B4002108B500B7
:100D50000230B6002A3084252A30B4008030B50035
:100D60000A128A11CA24B330B4004030B5000A1206
:100D70008A11CA240A128A112108803AF0008030B0
:100D80007002C930031920020318DA2E2308803AB2
:100D9000F000803070022930031922020318DA2E85
:100DA0002508803AF000803070023D30031924029B
:100DB000031CDC2E07140E2E07100E2E84080319B8
:100DC0000034720880008403710880008403700876
:100DD00080000034F801710D720DF60076080319D9
:100DE000F52EF80DF201F1170800F001F101F20102
:100DF0000034F810740D750DF70077080319052FEE
:100E00000318F814F501F4170800F701F301F401D1
:100E1000F501080076080319F52EF113F80C760C8D
:100E2000F2000318F117DE2EF608031D282FF0013B
:100E3000F101F201DE2E72030319F00A0319F10A1F
:100E40000319F20A0310F20CF10CF00CF60A142F3D
:100E5000F208031D1B2F700871040319172FF11BD3
:100E60000A2FF6030319172F0310F00DF10D2F2F82
:100E70008401EA26F926F901FA01FB010730F500A1
:100E80000310F40CF30C031C502F7008F9077108C1
:100E90000318710FFA0772080318720FFB0703108B
:100EA000F00DF10DF20DF50B402F0930F5005C2F20
:100EB0000310FB0CFA0CF90C0310F40CF30C031CDC
:100EC0006B2F7008F90771080318710FFA07720881
:100ED0000318720FFB07F50B582F7A307707F607C8
:100EE000780CF8067908F0007A08F1007B08F20027
:100EF000142F8401EA26F3018230F607F61BF52E43
:100F0000F030F607F61B952F183076020318F52EF1
:100F1000F608031D8E2F7818F2270800F603031039
:100F2000F00DF10DF20DF30D882F0310F20CF10C02
:100F3000F00CF60F952F8B2FF31FA12F7814F227AB
:100F4000A22FF8018E30F6008401F3080319142F44
:100F50000310F30CF20CF10CF00CF60AA52FF201C1
:100F6000F11BF2037208F3009C2FF201F301A12F91
:100F7000F601F401F50172087304031DC22FF0019C
:100F8000F10100341F30F6040310F60AF20DF30DE0
:100F9000031CC52FF30CF20C73087102031DD22F32
:100FA00072087002031CDA2F7208F0027308031C27
:100FB000730AF102F40DF50DF60BF61ACA2FF61F9F
:100FC000E62FF409F40A0319F503F5097408F20091
:100FD0007508F300761F0034F009F00A0319F103D5
:100FE000F10900340310FF30F007F009031CF1078A
:100FF000F109031CF207F209031CF307F3090800C7
:00000001FF
